{
  "contractName": "Registration",
  "abi": [
    {
      "anonymous": false,
      "inputs": [
        {
          "indexed": false,
          "internalType": "address",
          "name": "userAddress",
          "type": "address"
        }
      ],
      "name": "OtpGenerated",
      "type": "event"
    },
    {
      "anonymous": false,
      "inputs": [
        {
          "indexed": false,
          "internalType": "address",
          "name": "userAddress",
          "type": "address"
        }
      ],
      "name": "OtpVerified",
      "type": "event"
    },
    {
      "anonymous": false,
      "inputs": [
        {
          "indexed": false,
          "internalType": "address",
          "name": "userAddress",
          "type": "address"
        }
      ],
      "name": "UserRegistered",
      "type": "event"
    },
    {
      "inputs": [
        {
          "internalType": "address",
          "name": "",
          "type": "address"
        }
      ],
      "name": "users",
      "outputs": [
        {
          "internalType": "string",
          "name": "name",
          "type": "string"
        },
        {
          "internalType": "string",
          "name": "srn",
          "type": "string"
        },
        {
          "internalType": "string",
          "name": "email",
          "type": "string"
        },
        {
          "internalType": "bool",
          "name": "isRegistered",
          "type": "bool"
        },
        {
          "internalType": "bool",
          "name": "otpVerified",
          "type": "bool"
        },
        {
          "internalType": "string",
          "name": "otpHash",
          "type": "string"
        }
      ],
      "stateMutability": "view",
      "type": "function"
    },
    {
      "inputs": [
        {
          "internalType": "string",
          "name": "_name",
          "type": "string"
        },
        {
          "internalType": "string",
          "name": "_srn",
          "type": "string"
        },
        {
          "internalType": "string",
          "name": "_email",
          "type": "string"
        }
      ],
      "name": "registerUser",
      "outputs": [],
      "stateMutability": "nonpayable",
      "type": "function"
    },
    {
      "inputs": [
        {
          "internalType": "address",
          "name": "user",
          "type": "address"
        },
        {
          "internalType": "string",
          "name": "_otpHash",
          "type": "string"
        }
      ],
      "name": "generateOtp",
      "outputs": [],
      "stateMutability": "nonpayable",
      "type": "function"
    },
    {
      "inputs": [
        {
          "internalType": "address",
          "name": "user",
          "type": "address"
        },
        {
          "internalType": "string",
          "name": "_otp",
          "type": "string"
        }
      ],
      "name": "verifyOtp",
      "outputs": [],
      "stateMutability": "nonpayable",
      "type": "function"
    }
  ],
  "bytecode": "0x608060405234801561000f575f80fd5b5061132f8061001d5f395ff3fe608060405234801561000f575f80fd5b506004361061004a575f3560e01c8063a87430ba1461004e578063d637dcfa14610083578063e26f99021461009f578063f59b117c146100bb575b5f80fd5b6100686004803603810190610063919061099d565b6100d7565b60405161007a96959493929190610a6c565b60405180910390f35b61009d60048036038101906100989190610c13565b61033f565b005b6100b960048036038101906100b49190610cb7565b61051b565b005b6100d560048036038101906100d09190610cb7565b6106bb565b005b5f602052805f5260405f205f91509050805f0180546100f590610d3e565b80601f016020809104026020016040519081016040528092919081815260200182805461012190610d3e565b801561016c5780601f106101435761010080835404028352916020019161016c565b820191905f5260205f20905b81548152906001019060200180831161014f57829003601f168201915b50505050509080600101805461018190610d3e565b80601f01602080910402602001604051908101604052809291908181526020018280546101ad90610d3e565b80156101f85780601f106101cf576101008083540402835291602001916101f8565b820191905f5260205f20905b8154815290600101906020018083116101db57829003601f168201915b50505050509080600201805461020d90610d3e565b80601f016020809104026020016040519081016040528092919081815260200182805461023990610d3e565b80156102845780601f1061025b57610100808354040283529160200191610284565b820191905f5260205f20905b81548152906001019060200180831161026757829003601f168201915b505050505090806003015f9054906101000a900460ff16908060030160019054906101000a900460ff16908060040180546102be90610d3e565b80601f01602080910402602001604051908101604052809291908181526020018280546102ea90610d3e565b80156103355780601f1061030c57610100808354040283529160200191610335565b820191905f5260205f20905b81548152906001019060200180831161031857829003601f168201915b5050505050905086565b5f803373ffffffffffffffffffffffffffffffffffffffff1673ffffffffffffffffffffffffffffffffffffffff1681526020019081526020015f206003015f9054906101000a900460ff16156103cb576040517f08c379a00000000000000000000000000000000000000000000000000000000081526004016103c290610db8565b60405180910390fd5b6040518060c001604052808481526020018381526020018281526020016001151581526020015f1515815260200160405180602001604052805f8152508152505f803373ffffffffffffffffffffffffffffffffffffffff1673ffffffffffffffffffffffffffffffffffffffff1681526020019081526020015f205f820151815f01908161045a9190610f7c565b5060208201518160010190816104709190610f7c565b5060408201518160020190816104869190610f7c565b506060820151816003015f6101000a81548160ff02191690831515021790555060808201518160030160016101000a81548160ff02191690831515021790555060a08201518160040190816104db9190610f7c565b509050507f54db7a5cb4735e1aac1f53db512d3390390bb6637bd30ad4bf9fc98667d9b9b93360405161050e919061105a565b60405180910390a1505050565b5f808373ffffffffffffffffffffffffffffffffffffffff1673ffffffffffffffffffffffffffffffffffffffff1681526020019081526020015f206003015f9054906101000a900460ff166105a6576040517f08c379a000000000000000000000000000000000000000000000000000000000815260040161059d906110bd565b60405180910390fd5b5f808373ffffffffffffffffffffffffffffffffffffffff1673ffffffffffffffffffffffffffffffffffffffff1681526020019081526020015f2060030160019054906101000a900460ff1615610633576040517f08c379a000000000000000000000000000000000000000000000000000000000815260040161062a90611125565b60405180910390fd5b805f808473ffffffffffffffffffffffffffffffffffffffff1673ffffffffffffffffffffffffffffffffffffffff1681526020019081526020015f20600401908161067f9190610f7c565b507f4b8c46065ade0ad4fb1702cfd5cc2e452d65287dcd79166b5ecc851bdfa8645d826040516106af919061105a565b60405180910390a15050565b5f808373ffffffffffffffffffffffffffffffffffffffff1673ffffffffffffffffffffffffffffffffffffffff1681526020019081526020015f206003015f9054906101000a900460ff16610746576040517f08c379a000000000000000000000000000000000000000000000000000000000815260040161073d906110bd565b60405180910390fd5b5f808373ffffffffffffffffffffffffffffffffffffffff1673ffffffffffffffffffffffffffffffffffffffff1681526020019081526020015f2060030160019054906101000a900460ff16156107d3576040517f08c379a00000000000000000000000000000000000000000000000000000000081526004016107ca9061118d565b60405180910390fd5b5f808373ffffffffffffffffffffffffffffffffffffffff1673ffffffffffffffffffffffffffffffffffffffff1681526020019081526020015f206004016040516020016108229190611235565b6040516020818303038152906040528051906020012081604051602001610849919061127b565b604051602081830303815290604052805190602001201461089f576040517f08c379a0000000000000000000000000000000000000000000000000000000008152600401610896906112db565b60405180910390fd5b60015f808473ffffffffffffffffffffffffffffffffffffffff1673ffffffffffffffffffffffffffffffffffffffff1681526020019081526020015f2060030160016101000a81548160ff0219169083151502179055507f1d281815320563b64eaf3c54662ac7591fd7494279559d4a74d1282537be2f2382604051610926919061105a565b60405180910390a15050565b5f604051905090565b5f80fd5b5f80fd5b5f73ffffffffffffffffffffffffffffffffffffffff82169050919050565b5f61096c82610943565b9050919050565b61097c81610962565b8114610986575f80fd5b50565b5f8135905061099781610973565b92915050565b5f602082840312156109b2576109b161093b565b5b5f6109bf84828501610989565b91505092915050565b5f81519050919050565b5f82825260208201905092915050565b5f5b838110156109ff5780820151818401526020810190506109e4565b5f8484015250505050565b5f601f19601f8301169050919050565b5f610a24826109c8565b610a2e81856109d2565b9350610a3e8185602086016109e2565b610a4781610a0a565b840191505092915050565b5f8115159050919050565b610a6681610a52565b82525050565b5f60c0820190508181035f830152610a848189610a1a565b90508181036020830152610a988188610a1a565b90508181036040830152610aac8187610a1a565b9050610abb6060830186610a5d565b610ac86080830185610a5d565b81810360a0830152610ada8184610a1a565b9050979650505050505050565b5f80fd5b5f80fd5b7f4e487b71000000000000000000000000000000000000000000000000000000005f52604160045260245ffd5b610b2582610a0a565b810181811067ffffffffffffffff82111715610b4457610b43610aef565b5b80604052505050565b5f610b56610932565b9050610b628282610b1c565b919050565b5f67ffffffffffffffff821115610b8157610b80610aef565b5b610b8a82610a0a565b9050602081019050919050565b828183375f83830152505050565b5f610bb7610bb284610b67565b610b4d565b905082815260208101848484011115610bd357610bd2610aeb565b5b610bde848285610b97565b509392505050565b5f82601f830112610bfa57610bf9610ae7565b5b8135610c0a848260208601610ba5565b91505092915050565b5f805f60608486031215610c2a57610c2961093b565b5b5f84013567ffffffffffffffff811115610c4757610c4661093f565b5b610c5386828701610be6565b935050602084013567ffffffffffffffff811115610c7457610c7361093f565b5b610c8086828701610be6565b925050604084013567ffffffffffffffff811115610ca157610ca061093f565b5b610cad86828701610be6565b9150509250925092565b5f8060408385031215610ccd57610ccc61093b565b5b5f610cda85828601610989565b925050602083013567ffffffffffffffff811115610cfb57610cfa61093f565b5b610d0785828601610be6565b9150509250929050565b7f4e487b71000000000000000000000000000000000000000000000000000000005f52602260045260245ffd5b5f6002820490506001821680610d5557607f821691505b602082108103610d6857610d67610d11565b5b50919050565b7f5573657220616c726561647920726567697374657265640000000000000000005f82015250565b5f610da26017836109d2565b9150610dad82610d6e565b602082019050919050565b5f6020820190508181035f830152610dcf81610d96565b9050919050565b5f819050815f5260205f209050919050565b5f6020601f8301049050919050565b5f82821b905092915050565b5f60088302610e327fffffffffffffffffffffffffffffffffffffffffffffffffffffffffffffffff82610df7565b610e3c8683610df7565b95508019841693508086168417925050509392505050565b5f819050919050565b5f819050919050565b5f610e80610e7b610e7684610e54565b610e5d565b610e54565b9050919050565b5f819050919050565b610e9983610e66565b610ead610ea582610e87565b848454610e03565b825550505050565b5f90565b610ec1610eb5565b610ecc818484610e90565b505050565b5b81811015610eef57610ee45f82610eb9565b600181019050610ed2565b5050565b601f821115610f3457610f0581610dd6565b610f0e84610de8565b81016020851015610f1d578190505b610f31610f2985610de8565b830182610ed1565b50505b505050565b5f82821c905092915050565b5f610f545f1984600802610f39565b1980831691505092915050565b5f610f6c8383610f45565b9150826002028217905092915050565b610f85826109c8565b67ffffffffffffffff811115610f9e57610f9d610aef565b5b610fa88254610d3e565b610fb3828285610ef3565b5f60209050601f831160018114610fe4575f8415610fd2578287015190505b610fdc8582610f61565b865550611043565b601f198416610ff286610dd6565b5f5b8281101561101957848901518255600182019150602085019450602081019050610ff4565b868310156110365784890151611032601f891682610f45565b8355505b6001600288020188555050505b505050505050565b61105481610962565b82525050565b5f60208201905061106d5f83018461104b565b92915050565b7f55736572206e6f742072656769737465726564000000000000000000000000005f82015250565b5f6110a76013836109d2565b91506110b282611073565b602082019050919050565b5f6020820190508181035f8301526110d48161109b565b9050919050565b7f5573657220616c726561647920766572696669656400000000000000000000005f82015250565b5f61110f6015836109d2565b915061111a826110db565b602082019050919050565b5f6020820190508181035f83015261113c81611103565b9050919050565b7f416c7265616479207665726966696564000000000000000000000000000000005f82015250565b5f6111776010836109d2565b915061118282611143565b602082019050919050565b5f6020820190508181035f8301526111a48161116b565b9050919050565b5f81905092915050565b5f81546111c181610d3e565b6111cb81866111ab565b9450600182165f81146111e557600181146111fa5761122c565b60ff198316865281151582028601935061122c565b61120385610dd6565b5f5b8381101561122457815481890152600182019150602081019050611205565b838801955050505b50505092915050565b5f61124082846111b5565b915081905092915050565b5f611255826109c8565b61125f81856111ab565b935061126f8185602086016109e2565b80840191505092915050565b5f611286828461124b565b915081905092915050565b7f496e76616c6964204f54500000000000000000000000000000000000000000005f82015250565b5f6112c5600b836109d2565b91506112d082611291565b602082019050919050565b5f6020820190508181035f8301526112f2816112b9565b905091905056fea2646970667358221220378e2ba04b6f4d35d1076acf493de38347548be0869de268ed36aac2121dff7b64736f6c63430008150033",
  "immutableReferences": {},
  "source": "// SPDX-License-Identifier: MIT\r\npragma solidity ^0.8.21;\r\n\r\ncontract Registration {\r\n    struct User {\r\n        string name;\r\n        string srn;\r\n        string email;\r\n        bool isRegistered;\r\n        bool otpVerified;\r\n        string otpHash;\r\n    }\r\n\r\n    mapping(address => User) public users;\r\n\r\n    event UserRegistered(address userAddress);\r\n    event OtpGenerated(address userAddress);\r\n    event OtpVerified(address userAddress);\r\n\r\n    function registerUser(string memory _name, string memory _srn, string memory _email) public {\r\n        require(!users[msg.sender].isRegistered, \"User already registered\");\r\n        users[msg.sender] = User(_name, _srn, _email, true, false, \"\");\r\n        emit UserRegistered(msg.sender);\r\n    }\r\n\r\n    function generateOtp(address user, string memory _otpHash) public {\r\n        require(users[user].isRegistered, \"User not registered\");\r\n        require(!users[user].otpVerified, \"User already verified\");\r\n        users[user].otpHash = _otpHash;\r\n        emit OtpGenerated(user);\r\n    }\r\n\r\n    function verifyOtp(address user, string memory _otp) public {\r\n        require(users[user].isRegistered, \"User not registered\");\r\n        require(!users[user].otpVerified, \"Already verified\");\r\n        require(keccak256(abi.encodePacked(_otp)) == keccak256(abi.encodePacked(users[user].otpHash)), \"Invalid OTP\");\r\n        users[user].otpVerified = true;\r\n        emit OtpVerified(user);\r\n    }\r\n}",
  "sourcePath": "A:\\blockchain-registration1\\contracts\\Registration.sol",
  "compiler": {
    "name": "solc",
    "version": "0.8.21+commit.d9974bed.Emscripten.clang"
  },
  "schemaVersion": "3.4.13",
  "updatedAt": "2024-12-25T18:56:47.406Z",
  "devdoc": {
    "kind": "dev",
    "methods": {},
    "version": 1
  },
  "userdoc": {
    "kind": "user",
    "methods": {},
    "version": 1
  }
}